:020000040800F2
:100000000028002051050008A1050008A1050008EE
:10001000A1050008A1050008A105000800000000D6
:10002000000000000000000000000000A105000822
:10003000A105000800000000A1050008A1050008B6
:10004000A1050008A1050008A1050008A1050008F8
:10005000A1050008A1050008E90B00080D0C000827
:10006000310C0008550C0008790C0008A1050008A7
:10007000A1050008A1050008A1050008A1050008C8
:10008000A1050008A1050008A1050008A1050008B8
:10009000A1050008A1050008A10500089D0C0008A5
:1000A000A1050008A1050008A1050008A105000898
:1000B000A1050008A1050008A1050008A105000888
:1000C000A1050008A1050008A1050008A105000878
:1000D000A1050008A1050008A1050008A105000868
:1000E000450D0008A105000800000000A10500085A
:1000F000A1050008A1050008A1050008A105000848
:10010000A1050008A1050008A1050008A105000837
:10011000A1050008A1050008A1050008A105000827
:10012000A1050008A1050008A1050008A105000817
:1001300010B5054C237833B9044B13B10448AFF321
:1001400000800123237010BD00000020000000008B
:10015000500E000808B5034B1BB103490348AFF329
:10016000008008BD0000000004000020500E0008C0
:1001700080B485B000AF78600023FB600BE0002303
:10018000BB6002E0BB680133BB60BB68FE2BF9D9E2
:10019000FB680133FB60FA687B689A42EFD300BFCB
:1001A00000BF1437BD4680BC7047000080B500AF6B
:1001B000524B4FF480721A80504B04229A704F4B6E
:1001C0000122DA704D494E4800F0A4FA4B4B4FF42F
:1001D00000721A80494B04229A70484B0122DA704F
:1001E0004649474800F096FA444B4FF480621A8023
:1001F000424B04229A70414B0122DA703F49404839
:1002000000F088FA3D4B01221A803C4B04229A7080
:100210003A4B0122DA703949394800F07BFA374B02
:1002200002221A80354B04229A70344B0122DA7074
:100230003249334800F06EFA304B04221A802F4BBB
:1002400004229A702D4B0122DA702C492C4800F0C0
:1002500061FA2A4B08221A80284B04229A70274BF5
:100260000122DA702549264800F054FA234B102267
:100270001A80224B04229A70204B0122DA701F4907
:100280001F4800F047FA1D4B20221A801B4B042206
:100290009A701A4B0122DA701849194800F03AFA9C
:1002A000164B40221A80154B04229A70134B0122E0
:1002B000DA701249124800F02DFA104B80221A8091
:1002C0000E4B04229A700D4B0122DA700B490C4838
:1002D00000F020FA00224FF48061094800F0A4FAEF
:1002E00000224FF48071064800F09EFA00224FF47D
:1002F0000071034800F098FA00BF80BD1C00002088
:100300000008014080B500AF01224FF4806107482A
:1003100000F08AFA3220FFF72BFF00224FF48061B1
:10032000024800F081FA00BF80BD00BF0008014014
:1003300080B582B000AF0346FB71FB7919460C48CB
:1003400000F064FA00224FF40071094800F06CFAE2
:1003500000224FF48071064800F066FA0120FFF792
:1003600007FFFFF7CFFF00BF0837BD4680BD00BFC6
:100370000008014080B500AF1420FFF7F9FEFFF739
:1003800015FF0F20FFF7F4FE00F082F83820FFF78A
:10039000CFFF0620FFF7CCFF8020FFF7C9FF0D201D
:1003A000FFF7C6FF00BF80BD80B582B000AF034637
:1003B000FB71FB7919460C4800F028FA00224FF433
:1003C0000071094800F030FA01224FF480710648AC
:1003D00000F02AFA0120FFF7CBFEFFF793FF00BFE2
:1003E0000837BD4680BD00BF0008014080B584B01D
:1003F00000AF78600023FB601CE0FB680133FB600A
:100400007B685A1C7A601B781846FFF7CDFFFB68A3
:10041000102B04D10021022000F015F80AE0FB683F
:10042000202B07D100F034F80021012000F00BF858
:100430000023FB607B681B78002BDED100BF00BF70
:100440001037BD4680BD80B582B000AF03460A4676
:10045000FB711346BB71FB79012B15D1BB790F2BB7
:1004600006D8BB79803BDBB21846FFF761FF0BE093
:10047000FB79022B08D1BB790F2B05D8BB79403B08
:10048000DBB21846FFF754FF00BF0837BD4680BDFA
:1004900080B500AF0120FFF74BFF00BF80BD00001B
:1004A00080B400AF0A4B9B69094A43F0040393618F
:1004B000074B9B69064A43F008039361044B9B6911
:1004C000034A43F00103936100BFBD4680BC7047FF
:1004D0000010024080B500AF034B01221A600348B0
:1004E000FFF784FF00BF80BD20000020680E0008D9
:1004F00080B588B000AFFFF7D3FFFFF73BFFFFF7F2
:10050000C7FF104A07F10C0307CA83E8070000235E
:100510003B760D4BFB6101237B7607F10C031846FC
:1005200000F066FA094B01221A60FFF7B1FF074B92
:100530001B68002BFBD0FFF7ABFF044B00221A60B7
:10054000F5E700BF840E0008D50400082000002055
:100550000D488546AFF300800C480D490D4A002335
:1005600002E0D458C4500433C4188C42F9D30A4A68
:100570000A4C002301E013600432A242FBD300F0D6
:1005800043FCFFF7B5FFFEE7002800200000002035
:1005900000000020980E00080000002060000020ED
:1005A000FEE7000080B483B000AF0346FB80FB8809
:1005B000B3F5004F00F0A580B3F5004F00F3A38022
:1005C000B3F5804F00F09B80B3F5804F00F39B8024
:1005D000B3F5005F00F09180B3F5005F00F3938006
:1005E000B3F5805F00F08780B3F5805F00F38B8008
:1005F000B3F5006F7DD0B3F5006F00F38480B3F5E1
:10060000806F74D0B3F5806F7DDCB3F5007F6CD064
:10061000B3F5007F77DCB3F5807F64D0B3F5807FDE
:1006200071DC802B5DD0802B6DDC202B48DC002B17
:1006300069DD013B1F2B66D801A252F823F000BFF1
:10064000C7060008CB06000807070008CF06000809
:10065000070700080707000807070008D306000877
:100660000707000807070008070700080707000832
:10067000070700080707000807070008D706000853
:100680000707000807070008070700080707000812
:100690000707000807070008070700080707000802
:1006A00007070008070700080707000807070008F2
:1006B000070700080707000807070008DB0600080F
:1006C000402B0CD01FE000231EE004231CE0082375
:1006D0001AE00C2318E0102316E0142314E018236A
:1006E00012E01C2310E000230EE004230CE008239A
:1006F0000AE00C2308E0102306E0142304E018238A
:1007000002E01C2300E0002318460C37BD4680BCE5
:10071000704700BF80B584B000AF786039600023B7
:10072000FB600023BB603B681B88FF2B02D87B6803
:10073000FB6002E07B680433FB603B681B88184663
:10074000FFF730FF03461A460F239340DA43FB6856
:100750001B681A40FB681A603B689B78052B0BD01E
:100760003B689B78042B07D03B689B78072B03D012
:100770003B689B78062B0AD13B689B78043B9B0027
:100780003A68D278134303F00F03BB602BE03B6859
:100790009B78012B03D03B689B78002B06D13B68EC
:1007A0009B789B0003F00F03BB601CE03B689B78C9
:1007B000082B02D10423BB6015E00823BB603B6813
:1007C0009B78022B07D17B68DB683A6812881A4352
:1007D0007B68DA6007E07B68DB683A681288D2439E
:1007E0001A407B68DA603B681B881846FFF7DAFE20
:1007F00003461A46BB6803FA02F2FB681B681A43F9
:10080000FB681A6000BF1037BD4680BD80B483B05E
:1008100000AF78600B46FB70FA787B68DA6000BF47
:100820000C37BD4680BC704780B483B000AF7860A1
:100830000B467B8013467B707B78002B03D07A8835
:100840007B681A6102E07A887B685A6100BF0C37C6
:10085000BD4680BC7047000080B483B000AF034643
:10086000FB80FB880F2B54D801A252F823F000BF65
:10087000B1080008BF080008CD080008DB08000820
:10088000E9080008F7080008F7080008F70800085A
:10089000F7080008F708000805090008050900081E
:1008A00005090008050900080509000805090008F0
:1008B0001A4B1B68194A43F04003136029E0174B99
:1008C0001B68164A43F08003136022E0134B1B6839
:1008D000124A43F4807313601BE0104B1B680F4AED
:1008E00043F40073136014E00C4B1B680B4A43F491
:1008F000806313600DE0094B1B68084A43F4000352
:10090000136006E0064B1B68054A43F480731360CE
:1009100000BF00BF0C37BD4680BC704700E100E05F
:1009200004E100E080B483B000AF0346FB80FB88A5
:100930000F2B54D801A252F823F000BF7D09000804
:100940008B09000899090008A7090008B5090008E3
:10095000C3090008C3090008C3090008C309000847
:10096000C3090008D1090008D1090008D10900080D
:10097000D1090008D1090008D10900081A4B1B68E9
:10098000194A43F04003136029E0174B1B68164ACD
:1009900043F08003136022E0134B1B68124A43F4B8
:1009A000807313601BE0104B1B680F4A43F4007305
:1009B000136014E00C4B1B680B4A43F48063136014
:1009C0000DE0094B1B68084A43F40003136006E07E
:1009D000064B1B68054A43F48073136000BF00BFD9
:1009E0000C37BD4680BC704780E100E084E100E048
:1009F00080B582B000AF7860786800F005F800BF7D
:100A00000837BD4680BD000080B584B000AF786077
:100A10007B681B893B810123BB727B685B6807F1A4
:100A2000080211461846FFF775FE7B681B789B0885
:100A3000FB737B681B7803F00303DBB29B00BB7383
:100A4000624AFB7B023352F82320BB7B0F2101FA61
:100A500003F3DB4318465D49FB7B0240023341F858
:100A600023205A4AFB7B023352F823207B685B68C1
:100A700057498B4216D07B685B6856498B420FD032
:100A80007B685B6854498B4208D07B685B6853493C
:100A90008B4201D1032306E0002304E0022302E09D
:100AA000012300E00023B97B8B4018464749FB7BBC
:100AB0000243023341F82320494B9B687A6812783D
:100AC000114601228A40D2431146454A0B409360A9
:100AD000434BDB687A681278114601228A40D24380
:100AE00011463F4A0B40D3607B681B7B002B0BD128
:100AF0003B4B9B687A681278114601228A40114666
:100B0000374A0B43936029E07B681B7B012B0BD199
:100B1000334BDB687A681278114601228A4011460D
:100B20002F4A0B43D36019E07B681B7B022B15D146
:100B30002B4B9B687A681278114601228A40114635
:100B4000274A0B439360264BDB687A68127811467C
:100B500001228A401146224A0B43D3607B681B78EE
:100B600019467B681B691F4A42F821307B685B7B12
:100B7000012B11D11A4B1B687A6812781146012299
:100B80008A401146164A0B4313607B681B789BB260
:100B90001846FFF761FE15E07B685B7B002B11D1E7
:100BA0000F4B1B687A681278114601228A40D243A3
:100BB00011460B4A0B4013607B681B789BB21846AA
:100BC000FFF7B0FE00BF1037BD4680BD00000140FA
:100BD00000080140000C01400010014000140140D9
:100BE000000401402400002080B500AF054B5B6984
:100BF000044A43F001035361034B1B68984700BF4D
:100C000080BD00BF000401402400002080B500AF7B
:100C1000054B5B69044A43F002035361034B5B6875
:100C2000984700BF80BD00BF0004014024000020A1
:100C300080B500AF054B5B69044A43F00403536180
:100C4000034B9B68984700BF80BD00BF0004014074
:100C50002400002080B500AF054B5B69044A43F0D7
:100C600008035361034BDB68984700BF80BD00BF9A
:100C7000000401402400002080B500AF054B5B69F3
:100C8000044A43F010035361034B1B69984700BFAC
:100C900080BD00BF000401402400002080B500AFEB
:100CA000264B5B6903F02003002B08D0234B5B69C4
:100CB000224A43F020035361214B5B6998471F4B45
:100CC0005B6903F04003002B08D01C4B5B691B4A97
:100CD00043F0400353611A4B9B699847174B5B697C
:100CE00003F08003002B08D0144B5B69134A43F0D8
:100CF00080035361124BDB699847104B5B6903F427
:100D00008073002B08D00D4B5B690C4A43F4807351
:100D100053610B4B1B6A9847084B5B6903F40073E4
:100D2000002B08D0054B5B69044A43F40073536100
:100D3000034B5B6A984700BF80BD00BF00040140C1
:100D40002400002080B500AF2D4B5B6903F4806365
:100D5000002B08D02A4B5B69294A43F48063536116
:100D6000284B9B6A9847264B5B6903F40063002B72
:100D700008D0234B5B69224A43F400635361214B43
:100D8000DB6A98471E4B5B6903F48053002B08D045
:100D90001B4B5B691A4A43F480535361194B1B6B1D
:100DA0009847174B5B6903F40053002B08D0144B92
:100DB0005B69134A43F400535361124B5B6B9847D2
:100DC0000F4B5B6903F48043002B08D00C4B5B692D
:100DD0000B4A43F4804353610A4B9B6B9847084B83
:100DE0005B6903F40043002B08D0054B5B69044AA0
:100DF00043F400435361034BDB6B984700BF80BD56
:100E0000000401402400002070B500260C4D0D4C5C
:100E1000641BA410A64209D100F01AF800260A4D5E
:100E20000A4C641BA410A64205D170BD55F8043BC2
:100E300098470136EEE755F8043B98470136F2E74C
:100E4000900E0008900E0008900E0008940E000806
:100E5000F8B500BFF8BC08BC9E467047F8B500BFA7
:080E6000F8BC08BC9E46704777
:100E680049525120455854493920697320686170A6
:100E780070656E65642E2E2E2100000009000000AA
:080E8800000C014000021700FC
:040E90005501000800
:040E94003101000820
:040000050800055199
:00000001FF
