:020000040800F2
:100000000028002055040008A5040008A5040008E5
:10001000A5040008A5040008A504000800000000CD
:10002000000000000000000000000000A50400081F
:10003000A504000800000000A5040008A5040008AD
:10004000A5040008A5040008A5040008A5040008EC
:10005000A5040008A5040008A9040008CD040008B0
:10006000F10400081505000839050008A50400087A
:10007000A5040008A5040008A5040008A5040008BC
:10008000A5040008A5040008A5040008A5040008AC
:10009000A5040008A5040008A50400085D050008E3
:1000A000A5040008A5040008A5040008A50400088C
:1000B000A5040008A5040008A5040008A50400087C
:1000C000A5040008A5040008A5040008A50400086C
:1000D000A5040008190D00082D0D0008410D0008A9
:1000E00005060008A504000800000000A50400089B
:1000F000A5040008A5040008A5040008A50400083C
:10010000A5040008A5040008A5040008A50400082B
:10011000A5040008A5040008A5040008A50400081B
:10012000A5040008A5040008A5040008A50400080B
:1001300010B5054C237833B9044B13B10448AFF321
:1001400000800123237010BD040000200000000087
:100150009C0D000808B5034B1BB103490348AFF3DE
:10016000008008BD00000000080000209C0D000871
:1001700080B485B000AF78600023FB600BE0002303
:10018000BB6002E0BB680133BB60BB68FE2BF9D9E2
:10019000FB680133FB60FA687B689A42EFD300BFCB
:1001A00000BF1437BD4680BC7047000080B500AF6B
:1001B000524B4FF480721A80504B04229A704F4B6E
:1001C0000122DA704D494E4800F036FB4B4B4FF49C
:1001D00000621A80494B04229A70484B0122DA705F
:1001E0004649474800F028FB444B4FF480521A80A0
:1001F000424B04229A70414B0122DA703F49404839
:1002000000F01AFB3D4B01221A803C4B04229A70ED
:100210003A4B0122DA703949394800F00DFB374B6F
:1002200002221A80354B04229A70344B0122DA7074
:100230003249334800F000FB304B04221A802F4B28
:1002400004229A702D4B0122DA702C492C4800F0C0
:10025000F3FA2A4B08221A80284B04229A70274B63
:100260000122DA702549264800F0E6FA234B1022D5
:100270001A80224B04229A70204B0122DA701F4907
:100280001F4800F0D9FA1D4B20221A801B4B042274
:100290009A701A4B0122DA701849194800F0CCFA0A
:1002A000164B40221A80154B04229A70134B0122E0
:1002B000DA701249124800F0BFFA104B80221A80FF
:1002C0000E4B04229A700D4B0122DA700B490C4838
:1002D00000F0B2FA00224FF48051094800F036FBDA
:1002E00000224FF48071064800F030FB00224FF4EA
:1002F0000061034800F02AFB00BF80BD2000002001
:100300000008014080B500AF01224FF4805107483A
:1003100000F01CFB3220FFF72BFF00224FF480512E
:10032000024800F013FB00BF80BD00BF0008014081
:1003300080B582B000AF0346FB71FB7919460C48CB
:1003400000F0F6FA00224FF40061094800F0FEFACE
:1003500000224FF48071064800F0F8FA0120FFF700
:1003600007FFFFF7CFFF00BF0837BD4680BD00BFC6
:100370000008014080B500AF1420FFF7F9FEFFF739
:1003800015FF0F20FFF7F4FE00F00EF83820FFF7FE
:10039000CFFF0620FFF7CCFF8020FFF7C9FF0D201D
:1003A000FFF7C6FF00BF80BD80B500AF0120FFF79B
:1003B000BFFF00BF80BD000080B500AF0022034931
:1003C000034800F07DFC00BF80BD00BF000000209E
:1003D0000038014080B400AF0A4B9B69094A43F0E2
:1003E00004039361074B9B69064A43F0080393613A
:1003F000044B9B69034A43F00103936100BFBD4670
:1004000080BC70470010024080B584B000AFFFF799
:10041000E1FFFFF7AFFFFFF7C7FF80233B7100232A
:10042000BB7220237B72094BFB6000233B720023CD
:10043000FB7100237B710C23BB713B1D19460448E3
:1004400000F05EFB024800F0F5FAFEE7B903000891
:10045000003801400D488546AFF300800C480D4937
:100460000D4A002302E0D458C4500433C4188C420F
:10047000F9D30A4A0A4C002301E013600432A24275
:10048000FBD300F067FCFFF7BFFFFEE7002800206A
:100490000000002004000020DC0D00080400002003
:1004A00064000020FEE7000080B500AF054B5B69EB
:1004B000044A43F001035361034B1B68984700BF94
:1004C00080BD00BF000401402400002080B500AFC3
:1004D000054B5B69044A43F002035361034B5B68BD
:1004E000984700BF80BD00BF0004014024000020E9
:1004F00080B500AF054B5B69044A43F004035361C8
:10050000034B9B68984700BF80BD00BF00040140BB
:100510002400002080B500AF054B5B69044A43F01E
:1005200008035361034BDB68984700BF80BD00BFE1
:10053000000401402400002080B500AF054B5B693A
:10054000044A43F010035361034B1B69984700BFF3
:1005500080BD00BF000401402400002080B500AF32
:10056000264B5B6903F02003002B08D0234B5B690B
:10057000224A43F020035361214B5B6998471F4B8C
:100580005B6903F04003002B08D01C4B5B691B4ADE
:1005900043F0400353611A4B9B699847174B5B69C3
:1005A00003F08003002B08D0144B5B69134A43F01F
:1005B00080035361124BDB699847104B5B6903F46E
:1005C0008073002B08D00D4B5B690C4A43F4807399
:1005D00053610B4B1B6A9847084B5B6903F400732C
:1005E000002B08D0054B5B69044A43F40073536148
:1005F000034B5B6A984700BF80BD00BF0004014009
:100600002400002080B500AF2D4B5B6903F48063AC
:10061000002B08D02A4B5B69294A43F4806353615D
:10062000284B9B6A9847264B5B6903F40063002BB9
:1006300008D0234B5B69224A43F400635361214B8A
:10064000DB6A98471E4B5B6903F48053002B08D08C
:100650001B4B5B691A4A43F480535361194B1B6B64
:100660009847174B5B6903F40053002B08D0144BD9
:100670005B69134A43F400535361124B5B6B984719
:100680000F4B5B6903F48043002B08D00C4B5B6974
:100690000B4A43F4804353610A4B9B6B9847084BCA
:1006A0005B6903F40043002B08D0054B5B69044AE7
:1006B00043F400435361034BDB6B984700BF80BD9D
:1006C000000401402400002080B483B000AF034642
:1006D000FB80FB88B3F5004F00F0A580B3F5004F19
:1006E00000F3A380B3F5804F00F09B80B3F5804FFB
:1006F00000F39B80B3F5005F00F09180B3F5005FDD
:1007000000F39380B3F5805F00F08780B3F5805FDE
:1007100000F38B80B3F5006F7DD0B3F5006F00F36D
:100720008480B3F5806F74D0B3F5806F7DDCB3F552
:10073000007F6CD0B3F5007F77DCB3F5807F64D0A9
:10074000B3F5807F71DC802B5DD0802B6DDC202B9E
:1007500048DC002B69DD013B1F2B66D801A252F853
:1007600023F000BFEB070008EF0700082B08000884
:10077000F30700082B0800082B0800082B080008C6
:10078000F70700082B0800082B0800082B080008B2
:100790002B0800082B0800082B0800082B0800086D
:1007A000FB0700082B0800082B0800082B0800088E
:1007B0002B0800082B0800082B0800082B0800084D
:1007C0002B0800082B0800082B0800082B0800083D
:1007D0002B0800082B0800082B0800082B0800082D
:1007E000FF070008402B0CD01FE000231EE004236D
:1007F0001CE008231AE00C2318E0102316E0142351
:1008000014E0182312E01C2310E000230EE0042360
:100810000CE008230AE00C2308E0102306E0142370
:1008200004E0182302E01C2300E0002318460C37E4
:10083000BD4680BC704700BF80B584B000AF786013
:1008400039600023FB600023BB603B681B88FF2BE3
:1008500002D87B68FB6002E07B680433FB603B6886
:100860001B881846FFF730FF03461A460F239340B4
:10087000DA43FB681B681A40FB681A603B689B7888
:10088000052B0BD03B689B78042B07D03B689B78EB
:10089000072B03D03B689B78062B0AD13B689B78DB
:1008A000043B9B003A68D278134303F00F03BB600C
:1008B0002BE03B689B78012B03D03B689B78002B97
:1008C00006D13B689B789B0003F00F03BB601CE0E4
:1008D0003B689B78082B02D10423BB6015E00823FA
:1008E000BB603B689B78022B07D17B68DB683A686A
:1008F00012881A437B68DA6007E07B68DB683A6835
:100900001288D2431A407B68DA603B681B8818461D
:10091000FFF7DAFE03461A46BB6803FA02F2FB68E9
:100920001B681A43FB681A6000BF1037BD4680BDC4
:1009300080B483B000AF78600B46FB70FA787B68B8
:10094000DA6000BF0C37BD4680BC704780B483B00E
:1009500000AF78600B467B8013467B707B78002B62
:1009600003D07A887B681A6102E07A887B685A61D2
:1009700000BF0C37BD4680BC7047000080B400AF9C
:100980000B4B5B689B0803F00303022B0AD0022B7E
:100990000AD8002B02D0012B02D005E0054B03E062
:1009A000054B01E0044BFFE71846BD4680BC70478D
:1009B0000010024000127A000024F40080B500AF5D
:1009C000FFF7DCFF0246054B5B681B0903F00F03D2
:1009D0000349CB5C22FA03F3184680BD00100240A5
:1009E000C40D000880B500AFFFF7E8FF0246054BD5
:1009F0005B681B0A03F007030349CB5C22FA03F38D
:100A0000184680BD00100240BC0D000880B500AF44
:100A1000FFF7D4FF0246054B5B68DB0A03F00703D0
:100A20000349CB5C22FA03F3184680BD0010024054
:100A3000BC0D000880B584B000AF78607B682B4A9D
:100A4000934218D14FF40073BB810623BB7301237B
:100A5000FB7307F10C0319462548FFF7EDFE4FF431
:100A60008063BB810823BB7307F10C031946204840
:100A7000FFF7E2FE36E07B681E4A934216D104235C
:100A8000BB810623BB730123FB7307F10C031946DB
:100A90001748FFF7D1FE0823BB810823BB7307F17A
:100AA0000C0319461248FFF7C7FE1BE07B68124A89
:100AB000934217D14FF48063BB810623BB7301239C
:100AC000FB7307F10C0319460C48FFF7B5FE4FF412
:100AD0000063BB810823BB7307F10C031946074869
:100AE000FFF7AAFE00BF1037BD4680BD00380140A9
:100AF000000801400044004000480040000C014054
:100B000080B584B000AF78603960584A3B681360A4
:100B10007B68574A934206D1564B9B69554A43F42A
:100B20008043936114E07B68534A934206D1514B52
:100B3000DB69504A43F40033D36109E07B684F4AD4
:100B4000934205D14B4BDB694A4A43F48023D3617E
:100B50007B68DB6843F400527B68DA607B68DB68A3
:100B60003A6892781A437B68DA607B68DB683A6897
:100B700012791A437B68DA607B68DB683A68D2785E
:100B80001A437B68DA607B681B693A6852781A43BB
:100B90007B681A617B685B693A6892791A437B6863
:100BA0005A617B68324A934203D1FFF72FFFF86006
:100BB00002E0FFF717FFF8603B681B781B011A463D
:100BC000FB68B3FBF2F31901FA6813469B00134468
:100BD0009A0013443A6812789200B3FBF2F23B6831
:100BE0001B781B011846FB68B3FBF0F3642000FB85
:100BF00003F3D31A1B01224AA2FB03235B0903F070
:100C00000F030B43BB607B68BA689A603B685B79F3
:100C1000002B26D07B68DB683A6852791A437B68E0
:100C2000DA607B68124A934206D1164B1B68154A5C
:100C300043F02003136014E07B680F4A934206D10F
:100C4000104B1B680F4A43F04003136009E07B68B8
:100C50000A4A934205D10B4B1B680A4A43F08003B2
:100C6000136000BF1037BD4680BD00BF600000208C
:100C7000003801400010024000440040004800409D
:100C80001F85EB5104E100E080B485B000AFF8604F
:100C9000B9601346FB71FB79002B06D100BFFB68DE
:100CA0001B6803F08003002BF9D0BB681B88DAB205
:100CB000FB685A6000BF1437BD4680BC7047000017
:100CC00080B586B000AFF860B9601346FB710023B1
:100CD000FB75FB79002B12D100BFFB681B6803F08A
:100CE0008003002BF9D00AE0FB7DBA681344002290
:100CF00019460848FFF7C8FFFB7D0133FB75FB7DF4
:100D0000BA6813441B78002BEED100BF00BF183720
:100D1000BD4680BD0038014080B500AF024B1B6866
:100D20009B68984700BF80BD6000002080B500AF81
:100D3000024B1B689B68984700BF80BD6000002085
:100D400080B500AF024B1B689B68984700BF80BD11
:100D50006000002070B500260C4D0D4C641BA410E3
:100D6000A64209D100F01AF800260A4D0A4C641B6D
:100D7000A410A64205D170BD55F8043B9847013632
:100D8000EEE755F8043B98470136F2E7D40D00082A
:100D9000D40D0008D40D0008D80D0008F8B500BF28
:100DA000F8BC08BC9E467047F8B500BFF8BC08BC4C
:040DB0009E467047A4
:100DB40061686D6564000000000000000102030426
:100DC40000000000000000000102030406070809F7
:040DD40055010008BD
:040DD80031010008DD
:040DDC00B40D00084A
:040000050800045596
:00000001FF
